:040000000BEF00F012
:100008003582FACF06F0FBCF07F0F3ED04F0C7EF27
:0200180006F0F0
:100600000033322C060C412056616C75653E20008B
:10061000000000000000422056616C75653E20001D
:10062000000000000000412056616C75653E20000E
:100630000000000000004E657720413F3E20000092
:10064000000000000000422056616C75653E2000ED
:100650000000000000004E657720423F3E20000071
:10066000000000000000432056616C75653E2000CC
:100670000000000000004E657720433F3E20000050
:10068000000000000000000000000000000000006A
:10069000000000000000000000000000000000005A
:1006A000000000000000526561647920746F2067CB
:1006B0006F0050726F626C656D000000140E286E42
:1006C0001E0E296E280E276E000E2B6E030E2A6E4C
:1006D00014EC07F0A6EC06F0000E196E000E3AECD2
:1006E00007F033C019F034C01AF07CEC06F0020EAB
:1006F000E3EC06F0000E49EC06F0000E196E0A0E4F
:100700003AEC07F028504BEC05F0010E196E0A0E7A
:100710003AEC07F029504BEC05F02F50D8A429D023
:10072000FCD72FA0D1D0010E2A6E010E49EC06F0A5
:10073000CBD02FA0C9D0020E2A6E020E49EC06F0D3
:10074000C3D02FA0C1D0030E2A6E030E49EC06F0D1
:10075000BBD02FA0B9D0000E2A6E000E49EC06F0D7
:10076000B3D02FA0B1D0000E2A6E000E49EC06F0D7
:10077000ABD02A50000AD8B4D4D7010AD8B4D9D7FC
:10078000030AD8B4DED7010AD8B4E3D7EAD7000EFB
:10079000196E0A0E3AEC07F028504BEC05F0010EEA
:1007A000196E0A0E3AEC07F029504BEC05F0010ED9
:1007B00089D02FB22BC028F02FB42B2A2FA610D00F
:1007C0002B50D8A405D0000E226E000E216E06D04C
:1007D000FF0E2B24216E226AFF0E222221C02BF055
:1007E000000E196E0A0E3AEC07F028504BEC05F09B
:1007F000010E196E0A0E3AEC07F02B504BEC05F087
:10080000020E60D02FB22BC029F02FB42B2A2FA6B6
:1008100010D02B50D8A405D0000E246E000E236EED
:1008200006D0FF0E2B24236E246AFF0E242223C041
:100830002BF0000E196E0A0E3AEC07F029504BEC23
:1008400005F0010E196E0A0E3AEC07F02B504BEC36
:1008500005F0030E37D02FB22BC027F02FB42B2A70
:100860002FA610D02B50D8A405D0000E266E000E57
:10087000256E06D0FF0E2B24256E266AFF0E26223B
:1008800025C02BF0000E196E0A0E3AEC07F0275027
:100890004BEC05F0010E196E0A0E3AEC07F02B50E6
:1008A0004BEC05F0040E0ED0000E196E000E3AEC63
:1008B00007F0FDEC06F031C019F032C01AF07CEC04
:1008C00006F0050E8B6E0ED02A50000AD8B45FD702
:1008D000010AD8B46ED7030AD8B494D7010AD8B4A1
:1008E000BAD7E2D7000E2F6E18D7176E17C015F0C3
:1008F000153A0F0E15168C501518FE0B15188C6E28
:1009000017C015F0050E166ED8901532162EFCD7AE
:1009100015468C501518FD0B15188C6E17C015F068
:10092000060E166ED8901532162EFCD715461546B3
:100930008C501518FB0B15188C6E156A17AE01D06C
:10094000152A1546154615468C501518F70B15181F
:100950008C6E14B002D08C9801D08C88030EE82ED7
:10096000FED78C8A030EE82EFED78C9A510EE82E05
:10097000FED700D017B002D08C9001D08C8017C069
:1009800015F0D890153215468C501518FD0B15181A
:100990008C6E17C015F0D8901532D89015321546C8
:1009A00015468C501518FB0B15188C6E17C015F0DA
:1009B000D8901532D8901532D89015321546154674
:1009C00015468C501518F70B15188C6E030EE82E73
:1009D000FED78C8A030EE82EFED78C9A510EE82E95
:1009E000FED700D012000600E9CF08F0EACF09F0E8
:1009F000E1CF0AF0E2CF0BF0D9CF0CF0DACF0DF057
:100A0000F3CF0EF0F4CF0FF0F6CF10F0F7CF11F0D8
:100A1000F8CF12F0F5CF13F0F2BAF2A41ED0D2EC58
:100A200005F0A00E026E000E016E50EC07F0F2947D
:100A3000302A640E3018D8A410D082AE02D0010E35
:100A400001D0000EFF0A056E0532053282500518EE
:100A50007F0B0518826E000E306E13C0F5FF12C0BA
:100A6000F8FF11C0F7FF10C0F6FF0FC0F4FF0EC073
:100A7000F3FF0DC0DAFF0CC0D9FF0BC0E2FF0AC0C4
:100A8000E1FF09C0EAFF08C0E9FF07C0FBFF06C09D
:100A9000FAFF359211001F6E1FC014F0156A000E88
:100AA000176E0A0E166E11EC06F014501E6E1FC063
:100AB00014F0156A000E176E0A0E166E90EC05F013
:100AC00014501F6E1FC014F0156A000E176E0A0E28
:100AD000166E11EC06F014501D6E1FC014F0156A4E
:100AE000000E176E0A0E166E90EC05F014501F6E75
:100AF0001FC014F0156A000E176E0A0E166E11EC68
:100B000006F014501C6E1C50300F59EC07F01D50AD
:100B1000300F59EC07F01E50300F59EC07F012005F
:100B2000000E196E17AE06D0166C171ED8B0172A15
:100B3000010E196E15AE06D0146C151ED8B0152A0C
:100B4000010E191A000E1B6E000E1A6E16501710A9
:100B5000D8B41CD0010E186E04D0D89016361736B3
:100B6000182A17AEFAD7D8901A361B361650145CCE
:100B700017501558D8A005D01650145E1750155AA6
:100B80001A80D89017321632182EEDD71950D8B4D3
:100B900004D01A6C1B1ED8B01B2A1AC014F01BC03C
:100BA00015F0120030D08150D8B41200010E2D6E15
:100BB000000E2C6E81CF2EF0120081502E18D8A47A
:100BC00007D02C2A0A0E2C641200020E2D6E120081
:100BD000000E2D6E12008150D8A41200030E2D6E4F
:100BE00012002EC02FF0000E2D6E000E2C6E000E87
:100BF0002E6E1200000E2D6E000E2C6E000E2E6E4C
:100C0000000E2F6E12002D50000AD8B4CCD7010A66
:100C1000D8B4D3D7030AD8B4DED7010AD8B4E1D701
:100C2000E9D7000E196E15AE06D0146C151ED8B09B
:100C3000152A010E196E17AE04D0166C171ED8B007
:100C4000172A16501710D8B418D0010E186E04D0F9
:100C5000D89016361736182A17AEFAD71650145CE5
:100C600017501558D8A004D01650145E1750155AB6
:100C7000D89017321632182EF1D71950D8B404D0A4
:100C8000146C151ED8B0152A14C014F015C015F038
:100C90001200206EFDEC06F0000E196E000E3AEC0C
:100CA00007F02050200D060EF324196E060EF420D6
:100CB0001A6E7CEC06F0010E196E000E3AEC07F08D
:100CC00020501E6E1F6AD8901E361F361E3A1F3ADD
:100CD000F00E1F161E500F0B1F12F00E1E16100ED8
:100CE0001E26000E1F22060E1E24196E060E1F2041
:100CF0001A6E7CEC06F01200000E1D6E13D01D5013
:100D0000010D19C01BF01AC01CF0F3501B26F45043
:100D10001C221BC0F6FF1CC0F7FF0800F55059EC61
:100D200007F01D2A1D50010D19C01BF01AC01CF040
:100D3000F3501B26F4501C221BC0F6FF1CC0F7FF0B
:100D40000800F5500009D8B41200D9D79550C00B4F
:100D5000956EE00E1A6E6A0EE82EFED71A2EFCD79C
:100D6000000E1B6E040E1B6401D00ED01B50010D33
:100D7000010EF324F66E060EF420F76E0800F5500F
:100D800060EC07F01B2AEED7FDEC06F01200306A8B
:100D90002F6A2E6A2D6A2C6ACE0EF66E0E0EF76E34
:100DA000000EF86E00EE31F010EE04F00900F5CF01
:100DB000EEFFE550E150FAE135903592000EF86E05
:100DC00000015EEF03F0156E000E166E11D0000EDE
:100DD000176E180E176401D00AD0000E146E540E50
:100DE000E82EFED7142EFCD700D0172AF2D7162AE9
:100DF0001550165CD8B01200EAD7010E60EC07F06F
:100E00000D0E196EC30EE82EFED7192EFCD700F07A
:100E1000020E60EC07F00D0E196EC30EE82EFED721
:100E2000192EFCD700F012000F0EC16E9368000E51
:100E3000946E8B68030EE3EC06F0000E8B6E900E42
:100E40002AEC07F0A00E156E000E146E47EC07F0AA
:100E5000F28E1200146E14507F0BD56E000ED76EFA
:100E6000000ED66EF29414AE02D0F28A01D0F29A3D
:100E7000D58E12001A6E1950D8A402D0800E01D05F
:100E8000C00E196E19501A2460EC07F0120014C03D
:100E900016F015C017F017C0D7FF16C0D6FF120006
:100EA00001C003F002C004F004C0D7FF03C0D6FFA6
:100EB0001200186E010E146E185075EC04F012003A
:100EC000186E000E146E185075EC04F01200B20685
:020ED000A60674
:020000040020DA
:08000000FFFFFFFFFFFFFFFF00
:020000040030CA
:0E000000FF021F1EFF8181FF0FC00FE00F40A7
:00000001FF
